:02000000020AF2
:10000400D10C0200400C0600070A080AFF0C30005D
:10001400FF0C31000D0AF102110926052D0A00001A
:1000240000000000000000000000000000000000CC
:100034000000F002200AFF0C31000008000000005C
:1000440000000000000000000000000000000000AC
:10005400F002200A110AFF0C3000FF0C3100320AB2
:10006400F10236092604080A00000000000000001E
:10007400000000000000000000000000F002450A3B
:10008400FF0C310000080000000000000000000028
:1000940000000000000000000000F002450A360ADB
:0200A40000005A
:021FFE00EF0FE3
:00000001FF
