:02000000020AF2
:10000400D70C0200400C0600070A090A070A260555
:10001400730071007200FF0C3300FF0C3100020CFE
:100024003200140AF2021E0AFF0C3100020C3200E4
:10003400F302140A26042C0A000000000000000049
:10004400000000000000000000000000F1021E0A91
:100054002B0A140A2604730071007200FF0C33008B
:10006400FF0C3100020C3200370AF202400AFF0C86
:100074003100020C3200F302370A090A00000000C2
:10008400000000000000000000000000000000006C
:08009400F102400A4D0A370A8F
:021FFE00EF0FE3
:00000001FF
